:020000040000FA
:100000000C9434040C945C040C945C040C945C0418
:100010000C945C040C945C040C945C040C946118C7
:100020000C945C040C945C040C945C040C945C04D0
:100030000C945C040C945C040C945C040C945C04C0
:100040000C94BD180C945C040C945C040C945C043B
:100050000C945C040C945C040C945C040C945C04A0
:100060000C9407190C945C04AED580A83FD30040D3
:100070008D142002A1C8DA12817FD9F1DB40A4A639
:10008000AF00030C0F30333C3FC0C3CCCFF0F3FCC8
:10009000FF00000000240027002A000000000023C9
:1000A00000260029000000000800020100000304EF
:1000B00007000000000000000000000A0F205F00A1
:1000C0000000000000000000000000000000000030
:1000D00000000000000000FEFE0000000000000024
:1000E0000019190000000000001E1E00001E1E0066
:1000F00000000000000000000000000030FEFE30A4
:1001000030FEFE300000031F1F03031F1F0300000B
:1001100070F8D8FE9898000000000C18187F191F7E
:100120000F00001CB6A2F6CC606020300001010078
:100130000E1B111B0E00000000DC7EE6C6860C8044
:100140008000070F1C18191F1E1F13000000001E3F
:100150001E00000000000000000000000000000081
:100160000000E0FC1E02000000000000073F784095
:100170000000000000021EFCE00000000000004043
:10018000783F070000000000487830FE30784800D3
:10019000000000000001000000000000808080F0EE
:1001A000F080808000000101010F0F0101010000BB
:1001B000000000000000000000000000407C3C0047
:1001C000000000000000000000000000000000032C
:1001D0000303030300000000000000000000000013
:1001E00000000000001C1C0000000000000000C017
:1001F000F03C0E02000020381E0701000000000045
:10020000F0FC0EC6C60EFCF80000030F1C18181CEC
:100210000F070000000C06FEFE000000000018188A
:10022000181F1F18181800000C06060686C67C3812
:100230000000181C1E1B1918181800000C06C6C652
:10024000C6C6FC3800000C18181818190F0F00004B
:1002500080C070180EFEFE00000003030303031F9E
:100260001F030000FE7E666666E6C68000000C186E
:100270001818181C0F070000F0FCCE6666E6CC804C
:100280000000070F1C18181C0F07000006060606C2
:10029000E6FE3E0E000000101C0F030000000000F0
:1002A00038FCC6C6C6C6FC3800000F0F1818181850
:1002B0000F0F000078FCCE8686CEFCF80000000C04
:1002C0001919191C0F030000000000E0E0000000F5
:1002D00000000000001C1C0000000000000000E006
:1002E000E000000000000000407C3C000000000036
:1002F0008080C040606020300000010103020606DB
:10030000040C0000606060606060606000000606D1
:1003100006060606060600003020606040C08080A9
:1003200000000C0406060203010100000C0686C64C
:10033000667E1C00000000001B1B0000000000E0A7
:10034000F0389CCCCCDCF8F000071F387367666689
:100350007727000000C0FC3E3EFCC0000000181FD4
:100360000F03030F1F180000FEFEC6C6C6C6FC3CE6
:1003700000001F1F181818181F0F0000F0FC0C06B3
:100380000606060C0000030F0C181818180C0000C5
:10039000FEFE0606060CFCF000001F1F1818180CC5
:1003A0000F030000FEFEC6C6C6C6C60600001F1F1D
:1003B0001818181818180000FEFEC6C6C6C6C606CD
:1003C00000001F1F0000000000000000F0FC0C06F1
:1003D0008686868C0000030F0C1819191F0F000069
:1003E000FEFEC0C0C0C0FEFE00001F1F00000000D7
:1003F0001F1F0000000606FEFE0606000000001893
:10040000181F1F1818000000000000060606FEFE58
:1004100000000C18181818180F0F0000FEFEE0F06E
:10042000FC0E060200001F1F0000030F1E18000034
:10043000FEFE00000000000000001F1F1818181822
:1004400018180000FEFE3EF0F03EFEFE00001F1FEA
:10045000000101001F1F0000FEFE1EF0C000FEFE96
:1004600000001F1F0000031E1F1F0000F0FC0E06EF
:10047000060EFCF00000030F1C18181C0F030000F0
:10048000FEFEC6C6C6C67C7C00001F1F0000000022
:1004900000000000F0FC0E06060EFCF00000030F4A
:1004A0001C18183C6F070000FEFEC6C6C6C6FC3C02
:1004B00000001F1F000001031F1E1000387CE6C64D
:1004C000C6C68C0000000C18181818190F0F000071
:1004D000060606FEFE06060600000000001F1F00BE
:1004E00000000000FEFE00000000FEFE0000070FFE
:1004F0001C18181C0F07000006FEFC0000FCFE067E
:10050000000000001F1F1F1F0000001EFEE000F083
:10051000F000E0FE1E001F1F1E01011E1F1F000035
:10052000020E3EF8F83E0E020000101C1F03031FCF
:100530001C1000020E3E78E0E0783E0E0200000043
:10054000001F1F0000000000060686C6F67E1E0E75
:1005500000001C1E1F1B1818181800000000FEFECB
:1005600002020000000000007F7F40400000000009
:10057000020E38E080000000000000000000030EC2
:1005800038200000000202FEFE00000000000040D3
:10059000407F7F0000000010181C0E060E1C181073
:1005A000000000000000000000000000000000004B
:1005B00000000000004040404040404040404000BB
:1005C000000103060400000000000000000000001D
:1005D00000000000006030B0B0B0F0E000000E1F7E
:1005E0001B19190D1F1F0000FEFE60303070E0C0A7
:1005F00000001F1F0C18181C0F070000C0E070300F
:10060000303030600000070F1C181818180C00005C
:10061000C0E070303060FEFE0000070F1C18180CA0
:100620001F1F0000C0E0B0B0B0B0E0C00000070F76
:100630001D191919190D00003030FCFE3636360030
:10064000000000001F1F000000000000C0E070302C
:100650003060F0F0000003376E6C6C667F3F000086
:10066000FEFE60303030F0E000001F1F0000000090
:100670001F1F0000003030F7F700000000001818BE
:10068000181F1F1818180000003030F7F70000007E
:1006900000006060607F3F0000000000FEFE80E020
:1006A0007030100000001F1F0103071E181000000B
:1006B0000606FEFE00000000000000000F1F1818D4
:1006C00018000000F0F030F0E030F0E000001F1FF4
:1006D000001F1F001F1F0000F0F060303030F0E0FE
:1006E00000001F1F000000001F1F0000C0E070304E
:1006F0003070E0C00000070F1C18181C0F07000026
:10070000F0F060303070E0C000007F7F060C0C0E0F
:1007100007030000C0E070303060F0F00000030715
:100720000E0C0C067F7F000000F0F060303030309F
:100730000000001F1F00000000000000E0F0B0B04B
:10074000B0B0306000000C191919191B1F0E000001
:100750003030FCFC30303000000000000F1F181853
:1007600018000000F0F000000000F0F000000F1F83
:100770001818180C1F1F000030F0E00000E0F030E7
:10078000000000010F1E1E0F01000070F00000C0ED
:10079000C00000F07000071F1E03031E1F070000AB
:1007A0001030F0C0C0F03010000010181E07071EF7
:1007B0001810000010F0F08000F0F0300000006031
:1007C000637F1F0F0100000030303030B0F0703018
:1007D0000000181C1E1B191818180000000000FC4F
:1007E000FE02020000000001013E7E4040000000C9
:1007F000000000FEFE00000000000000007F7F00FF
:1008000000000000000202FEFC00000000000040AA
:10081000407E3E010100000080C0C0C0808080C0DA
:100820000000010000000101010000680019804083
:100830000001020408102040800102040810200179
:10084000020408102000000000250028002B0004EE
:100850000404040404040402020202020203030367
:1008600003030302261AA52111241FBECFEFD8E0EF
:10087000DEBFCDBF24E0AAE0B2E001C01D92AB38DC
:10088000B207E1F712E0A0E0B1E0EEEEFDE402C055
:1008900005900D92AA30B107D9F714E0C3E3D4E074
:1008A00004C02197FE010E94CB24C233D107C9F7AF
:1008B0000E946C1A0C94EA260C9400000895089586
:1008C000AF92BF92CF92DF92EF92FF920F931F935E
:1008D000CF93DF936C017B018B01040F151FEB019C
:1008E0005E01AE18BF08C017D10759F06991D60153
:1008F000ED91FC910190F081E02DC6010995892BC5
:1009000079F7C501DF91CF911F910F91FF90EF9083
:10091000DF90CF90BF90AF900895833081F028F49E
:10092000813099F08230A9F008958730A9F088309D
:10093000C9F08430B1F4809180008F7D03C0809134
:1009400080008F7780938000089584B58F7784BD71
:10095000089584B58F7DFBCF8091B0008F77809311
:10096000B00008958091B0008F7DF9CFCF93DF93D1
:10097000282F30E0F901EB55FF4F8491F901EF5C2E
:10098000F74FD491F901E15BF74FC491CC23A1F06B
:1009900081110E948D04EC2FF0E0EE0FFF1FE55651
:1009A000FF4FA591B491EC91ED2381E090E009F423
:1009B00080E0DF91CF91089580E090E0FACF1F931F
:1009C000CF93DF93282F30E0F901EB55FF4F84914F
:1009D000F901EF5CF74FD491F901E15BF74FC49156
:1009E000CC23A9F0162F81110E948D04EC2FF0E08A
:1009F000EE0FFF1FEB5BF74FA591B4918FB7F89403
:100A0000EC91111108C0D095DE23DC938FBFDF91EC
:100A1000CF911F910895DE2BF8CF90910301891398
:100A20000BC0E3E6F8E0E4919FEF90930301E1301F
:100A300049F028F0E23061F060E00C94DF0410929D
:100A40006E00FACF90916F009D7F90936F00F4CF6E
:100A5000909170009D7F9093700091E09093B00012
:100A60009091B100987F94609093B1001092B30080
:100A7000E3CFCF93DF9390E0FC01EF5CF74F24913D
:100A8000815B974FFC0184918823D1F090E0880F1F
:100A9000991FFC01EF56FF4FA591B491FC01EB5B50
:100AA000F74FC591D49161110EC09FB7F8948C9106
:100AB000E22FE0958E238C932881E223E8839FBF69
:100AC000DF91CF9108958FB7F894EC91E22BEC93DE
:100AD0008FBFF6CF8F929F92AF92BF92CF92DF924D
:100AE000EF92FF92CF936C0180910301843069F003
:100AF0008F3F09F470C0CF91FF90EF90DF90CF90BF
:100B0000BF90AF909F908F900895E3E6F8E0C49176
:100B1000C7FDF1CF61E084E00E943905CC2319F0D4
:100B2000C23009F022C1F12CE12C60E072E18AE7C9
:100B300090E0A70196010E94AC2449015A01DA0114
:100B4000C9010197A109B1098F3F9105A105B1051F
:100B500009F00CF4EEC060E472E48FE090E0A701CD
:100B600096010E94AC242150310941095109C2303B
:100B700009F0A0C082E02F3F31054105510509F081
:100B80000CF488C160E970ED83E090E0A701960164
:100B90000E94AC24215031094109510983E02F3FC3
:100BA00031054105510509F00CF474C168E478EE93
:100BB00081E090E0A70196010E94AC242150310908
:100BC000410951092F3F31054105510511F00CF044
:100BD0008FC084E05FC184E080930301E3E6F8E026
:100BE000C491CF3F09F487CFC13021F150F0C2301A
:100BF00009F43EC0C7FD7FCF61E084E00E94390563
:100C00008FCF14BC15BC84B5826084BD85B581606E
:100C100085BDE3E5F8E0E491F0E0EE0FFF1FEB5B4C
:100C2000F74F85919491E5E3F8E0E491E093420475
:100C3000C0E070CF109280001092810080918100FE
:100C40008860809381008091810081608093810021
:100C5000E3E5F8E0E491F0E0EE0FFF1FEB5BF74F08
:100C600085919491E5E3F8E0E491E093410452CF5B
:100C70001092B0001092B1008091B0008260809319
:100C8000B0008091B10081608093B100E3E5F8E0AD
:100C9000E491F0E0EE0FFF1FEB5BF74F859194912D
:100CA0009093400480933F04E5E3F8E0E491E093FF
:100CB0003E0430CF2F3F31054105510509F00CF4BA
:100CC00052C068E478EE81E090E0A70196010E94AE
:100CD000AC242150310941095109CC2309F4AFC09A
:100CE0002F3F31054105510511F00CF0B0C071CF17
:100CF00064E274EF80E090E0A70196010E94AC24CA
:100D0000215031094109510985E02F3F3105410545
:100D1000510509F008F4BEC062E17AE780E090E096
:100D2000A70196010E94AC242150310941095109C3
:100D30009CC09C0181E0C111ADC095B5987F892B05
:100D400085BD27BD8FEF9FEFDC0180934B0490930F
:100D50004C04A0934D04B0934E0480916E008260C9
:100D600080936E00C8CE82E0E6CFF12CE12C60E0EB
:100D700072E18AE790E0A70196010E94AC2421501D
:100D800031094109510991E02115310581E04807F8
:100D900051056CF068E478EE81E090E0A7019601DF
:100DA0000E94AC24215031094109510993E0C1301E
:100DB00009F076C080918100887F892B8093810023
:100DC00030938900209388008FEF9FEFDC018093A0
:100DD000470490934804A0934904B0934A04809137
:100DE0006F00826080936F0086CE2093B3008FEFF8
:100DF0009FEFDC018093430490934404A093450447
:100E0000B09346048091700082608093700073CE2E
:100E100084E02F3F31054105510509F008F48DCFDD
:100E20009AE0B594A794979487949A95D1F7A501E1
:100E30009401215031094109510985E07ECF83E0B9
:100E40002F3F31054105510509F00CF476CF62E1E1
:100E50007AE780E090E0A70196010E94AC2421503F
:100E6000310941095109CC2399F286E02F3F310520
:100E70004105510579F070F08AE0B594A7949794F4
:100E800087948A95D1F7A501940121503109410930
:100E9000510987E09091B100987F892B8093B10030
:100EA000C13009F48DCFC23009F49FCFC11123CED8
:100EB00048CF3FB7F89480919D0290919E02A091F7
:100EC0009F02B091A00226B5A89B05C02F3F19F044
:100ED0000196A11DB11D3FBFBA2FA92F982F8827BA
:100EE000BC01CD01620F711D811D911D42E0660F95
:100EF000771F881F991F4A95D1F708958F929F9267
:100F0000AF92BF92CF92DF92EF92FF924B015C01C2
:100F10000E9459076B017C010E9459076C197D09D9
:100F20008E099F09683E734081059105A8F321E071
:100F3000821A9108A108B10888EEC80E83E0D81E75
:100F4000E11CF11C81149104A104B10429F7FF9064
:100F5000EF90DF90CF90BF90AF909F908F900895CB
:100F60002FB7F8946091990270919A0280919B0238
:100F700090919C022FBF089520917502260F332770
:100F8000331F21323105ECF42091F802FC0190E08E
:100F900080E0243069F082E00895A09175022191EB
:100FA000AC014B5A5D4FA40FB52FB11D2C93019688
:100FB000861798F380917502680F6093750280E040
:100FC000089581E008951092F80281E08093F7027D
:100FD0001092D20261E082E10E94DF0461E083E1CD
:100FE0000E94DF04E9EBF0E080818E7F80838081C6
:100FF0008D7F808388E48093B80085E48093BC0073
:101000000895CF93DF9391E0909354028823B9F031
:10101000C091B800D091BA008091BC008A7B8093C7
:10102000BC0060E082E10E94DF0460E083E10E9496
:10103000DF040E94E307D093BA00C093B800DF91A9
:10104000CF910895CF92DF92EF92FF920F931F936B
:10105000CF93DF93D091210381E0D13208F09CC07F
:10106000C09120030E9459076B017C018091F80216
:1010700081116CC082E08093F80281E08093F702D6
:101080008FEF8093F6021092F502D093F402A0E065
:10109000B3E0E4EDF2E080E0D8138DC01092D3020B
:1010A0008091D302CC0FC82BC093D3028091D2027F
:1010B000813009F084C01092D2020E9459076B015E
:1010C0007C018091D3028093BB008091FA029091C1
:1010D000FB02A091FC02B091FD02892B8A2B8B2B85
:1010E000A1F00E9459070091FA021091FB02209191
:1010F000FC023091FD026C197D098E099F090617CB
:1011000017072807390708F442C08091BC0083FD07
:10111000D8CF85EC8093BC000E9459076B017C01FD
:101120008091F802823009F44CC08091F6028F3F22
:1011300009F469C08091F602803209F466C080919A
:10114000F602803309F463C084E026C08091FA027D
:101150009091FB02A091FC02B091FD02892B8A2B99
:101160008B2B09F483CF0E9459070091FA0210914A
:10117000FB022091FC023091FD026C197D098E0961
:101180009F09061717072807390708F06FCF8091C6
:10119000F9020E94010885E01092FF0210922103DB
:1011A0001092FE02DF91CF911F910F91FF90EF906F
:1011B000DF90CF9008959D9191938F5F6DCF85EED5
:1011C000A9CF8091FA029091FB02A091FC02B0910C
:1011D000FD02892B8A2B8B2B09F4A2CF0E94590781
:1011E0000091FA021091FB022091FC023091FD0265
:1011F0006C197D098E099F090617170728073907FB
:1012000008F08ECFC4CF80E0C7CF82E0C5CF83E0A7
:10121000C3CF0895E091A8028091A702E81730F4A7
:10122000F0E0EC5CFD4F808190E008958FEF9FEF40
:1012300008959091A8028091A7022FEF3FEF981791
:1012400048F4E92FF0E0EC5CFD4F208130E09F5F37
:101250009093A802C90108958091A7029091A802D5
:10126000891B990B0895CF92DF92EF92FF920F9313
:101270001F93CF93DF937C01CB018A012091FE0263
:10128000222389F0EB016B01C40ED51ECC15DD05C0
:1012900069F06991D701ED91FC910190F081E02D09
:1012A000C7010995F3CF642F0E94BC07C801DF91E5
:1012B000CF911F910F91FF90EF90DF90CF90089505
:1012C000CF93DF931F92CDB7DEB769832091FE02E3
:1012D0002223F9F020912103203258F021E030E060
:1012E000FC013383228390E080E00F90DF91CF9167
:1012F00008958091FF02E82FF0E0E050FD4F9981C2
:1013000090838F5F8093FF028093210381E090E0C0
:10131000ECCF61E0CE0101960E94BC07F7CFCF93DE
:10132000DF93EC018D85882329F081508D87DF9133
:10133000CF9108959C818E819817C8F78889682776
:10134000E881F9810084F185E02D42E0CE01099524
:101350008C818F5F8C83EBCFDC01ED91FC9100845D
:10136000F185E02D40E009940F931F93CF938C01FA
:10137000FC016483C085C60F6C2F6F700E94AC099E
:101380006C2F62956F706061C801CF911F910F91B2
:101390000C94AC09FC0127812695269526956217A9
:1013A00038F465832385620F6770606B0C94AC0919
:1013B00008951F93CF93DF93EC01142F8E8168174C
:1013C00018F4CE010E94B409612FCE01DF91CF91B4
:1013D0001F910C94CA09CF92DF92EF92FF920F9364
:1013E0001F93CF93DF93EC01F62EC42ED22E1D86D1
:1013F0008F81869586958695081710F00FEF080F58
:101400001D2D011780F0412F6F2DCE010E94D909AB
:10141000EF2CCE1430F06889CE010E948F09E3943E
:10142000F8CF1F5FEECF4D2D6F2DCE01DF91CF9105
:101430001F910F91FF90EF90DF90CF900C94D909FE
:101440000F93CF93DF93CBE5D4E01B861A8660E43D
:10145000CE010E94AC090F810695069506950150B4
:101460004E81415020E060E0CE010E94EB09DF9107
:10147000CF910F9108952F923F924F925F926F926A
:101480007F928F929F92AF92BF92CF92DF92EF9214
:10149000FF920F931F93CF93DF9300D000D000D023
:1014A000CDB7DEB7DC011E962D913C91211531059B
:1014B00009F478C19E838D83F90132966490319648
:1014C0004491E42EF12CB7E0EB0EF11C53E0F594BF
:1014D000E7945A95E1F7E982319654913196E49177
:1014E0006D3029F5FC01868181111BC081E090E0FF
:1014F00026960FB6F894DEBF0FBECDBFDF91CF9119
:101500001F910F91FF90EF90DF90CF90BF90AF9021
:101510009F908F907F906F905F904F903F902F9013
:10152000089560E08D819E810E94B409DFCF6A300A
:1015300009F067C0AD81BE8116968C9116978823FD
:1015400021F060E0CD010E94B409ED81FE810189A6
:101550000E9DE02C112465816E0D8485882349F051
:1015600027812695269526958E2D821B860F181687
:101570002CF08D819E810E94CA09B8CFAD81BE81B9
:101580001B969C911B97890F87701B968C931B97BA
:101590002E1915962C9315971E96ED91FC91309768
:1015A00071F13396E491F0E0379633E0F595E795E5
:1015B0003A95E1F70E9F002D1124EFEFE20F0E0F89
:1015C000ED81FE81468141506481CF010E94EB098B
:1015D000AD81BE811C968C911C97813009F086CF1D
:1015E0001B966C911B97660F660F660F6F731A96AA
:1015F0006C931A976064CD010E94AC0977CF00E02C
:10160000DCCF651708F4CEC08E2F90E0FC01E50F0B
:10161000F11D6E171F060CF0C5C089010A5F1F4F30
:10162000651BED81FE8171855189759F502D1124B7
:101630005C83F90154912F5F3F4FF9012491352FBD
:101640002230310508F070C06E9CC0016F9C900D77
:101650001124689FF001699FF00D11240E0F1F1FC8
:10166000512CAD81BE811496BC91BA83ED81FE816F
:101670002580F585FB83862C912CAA24A394B12C7C
:10168000312C8981381608F08BC0412CAD81BE8188
:1016900051968C915197481608F07BC0EB811D96AE
:1016A000EC93311002C0442051F0AD81BE811596FB
:1016B0004C9115974F5F6A81CD010E94D909D12CB9
:1016C000C12CC61408F058C0F801EC0DFD1D749033
:1016D000552061F0EA14FB0449F4E72DF0E0052CF5
:1016E00002C0F595E7950A94E2F77E2EED81FE8122
:1016F0008189823081F4442009F43AC072948FE0E9
:101700007822E72DF0E0EF57FF4F7490672D8D8121
:101710009E810E948F09672D8D819E810E948F0975
:101720008FEFC81AD80ACDCF477028E0522E541A2E
:10173000411101C0512CF801612C30E020E0661607
:1017400031F04491240F311D63943196F8CF600E2F
:10175000712E711CF3016490E29EF001E39EF00D86
:10176000F29EF00D11248E0F9F1F080F191F79CFC5
:10177000F72DFF707F2EC5CFD12CAC81DA1639F052
:1017800060E08D819E810E948F09D394F6CF4394AF
:101790007DCF3394080D191DBFEFAB1ABB0A71CF73
:1017A000622DE7CE90E080E0A3CEECE2F3E08CE0A7
:1017B00086838BE08093010181E087838093B80268
:1017C000089580913C04882319F0815080933C0453
:1017D00080913C04882361F0E6EAF3E090E09F0109
:1017E000265A3340281739071CF421812193F7CF5B
:1017F00008958CED95E00E946A0564E670E080E053
:1018000090E00E947E0780E991E00E946A0564E60C
:1018100070E080E090E00E947E0784E00C940D056B
:1018200080912C03882369F082E00E94B604811124
:1018300007C081E08093230310923C04109225039B
:10184000089585E0F2CF8091C802882349F0809105
:101850003203882319F060E00E94DF041092C8026E
:101860000895CF92DF92EF92FF928091A102882398
:1018700079F00E94B00760932E0270932F0280933C
:10188000300290933102FF90EF90DF90CF90089557
:101890008091C8028823B9F3809125038111F3CF89
:1018A000C0902E02D0902F02E0903002F0903102D2
:1018B000809100018230F1F40E94B007AB01BC01BD
:1018C0004C195D096E097F09E0913303F0E0EE0FDA
:1018D000FF1FEE57FC4F80819181B0E0A0E04817D8
:1018E00059076A077B0778F2FF90EF90DF90CF905F
:1018F0000C94230C0E94B007AB01BC014C195D098C
:101900006E097F09E0913303F0E0EE0FFF1FEE5701
:10191000FC4F80819181B0E0A0E084179507A60775
:10192000B70708F0B0CF80913E038823E9F2809199
:101930003C048823C9F2A7CFCF92DF92EF92FF92A7
:101940000E94B0076B017C0180913F03811130C080
:101950008091C802811122C080913203882319F03E
:1019600061E00E94DF0481E08093C8020E94B0071A
:10197000AB01BC014C195D096E097F09E09133038D
:10198000F0E0EE0FFF1FEA58FC4F80819181B0E03C
:10199000A0E0481759076A077B0740F30E94B00789
:1019A00060932E0270932F02809330029093310245
:1019B000FF90EF90DF90CF9008952091A102892BA6
:1019C00041F1211124C08091A902882349F00E948D
:1019D0009C0C80910101882319F061E00E94DF04D2
:1019E00080912E03813051F090912203923031F09A
:1019F000823051F480912B03823031F48091440382
:101A0000909145030E946A0581E08093A1020C94A5
:101A1000310C2223E1F38091A902882349F08091BF
:101A20000101882319F060E00E94DF040E949C0CF1
:101A300080912E03813051F090912203923031F049
:101A4000823039F480912B03823019F484E00E94B3
:101A50000D051092A102DBCFEF92FF920F931F931F
:101A6000CF93DF93EC018A0180911702F62EFF0CD1
:101A70008230C9F18093160282E0809317020E949F
:101A8000200A2C813D814F2D60E02C30310550F42F
:101A90008BE090E0821B930B969587956BE0869F79
:101AA000602D11248BE594E00E94D9094C815D8161
:101AB000688179818BE594E00E9460040E94B00700
:101AC000600F711F811D911D6093120270931302AC
:101AD0008093140290931502DF91CF911F910F9183
:101AE000FF90EF900895E12C4F2D6E2D8BE594E043
:101AF0000E94D90941E050E068E072E08BE594E093
:101B00000E9460048BE0E80E89E7E812EDCFB9CFC0
:101B10000F931F93CF9380910C02813071F440E0BA
:101B200060E08BE594E00E94D90910920B021092BC
:101B30000A0282E080930C021EC0823041F580913F
:101B40000A0290E040910B02642F70E026E0429F71
:101B5000F0011124E159FB4F0480F581E02DE817D5
:101B6000F90760F54F5F40930B02443040F010924C
:101B70000C0210920D02CF911F910F9108951092B7
:101B80000A02440F60E08BE594E00E94D90980913D
:101B90000C028111F0CFC0911702C130A9F58091DC
:101BA000160280931702882351F1833021F70E9497
:101BB000200AC0930C0210920E02DDCF269FF00186
:101BC000279FF00D1124E159FB4F248135818217A5
:101BD000930778F4208131812115310551F0820F6E
:101BE000931FFC016081161624F48BE594E00E949B
:101BF0003B0A80910A028F5F80930A02C8CF0E943D
:101C0000200A10921702B7CFC23091F0C33009F00A
:101C1000B2CF80910D02882309F4ADCF80910E02DE
:101C2000882321F00E94200A10920E0281E082CFC8
:101C30000E94B00700911202109113022091140229
:101C400030911502061717072807390710F781E0AA
:101C500080931702DECF0F931F93CF93DF93EC0196
:101C6000062F142F8B89813120F4882329F041110C
:101C700003C00E9422081B8A8B89811112C08A89A5
:101C800091E09093FE02809320031092FF02109245
:101C9000210360E4111101C060E08FE494E00E9430
:101CA0006009602F8FE494E00E946009123041F4D3
:101CB0008B898F5F8B8BDF91CF911F910F9108954F
:101CC0000E9422081B8AF7CF089590E080E00895D3
:101CD0000F931F93CF93DF9369E290E080E00E941F
:101CE0000B230CE213E0C1E0D0E0F80161918F0119
:101CF000CE010E940B232196CB37D105B1F710926C
:101D0000B8020E94F90B0E94F90BDF91CF911F914D
:101D10000F910C94F90B0E94D5260F931F93CF932C
:101D2000DF93EC0188819981009759F02A813B81EA
:101D30002617370730F081E0DF91CF911F910F9187
:101D400008958B016F5F7F4F0E941826009759F00E
:101D5000998388831B830A832C813D81232B59F728
:101D6000FC011082E8CF80E0E7CFEF92FF920F9363
:101D70001F93CF93DF936115710541F480E0DF91EC
:101D8000CF911F910F91FF90EF900895411551054C
:101D9000B1F07B01EC010C811D81040F151FB8010E
:101DA0000E948D0E882351F3288139818C819D8179
:101DB000B701820F931F0E94E3261D830C8381E0ED
:101DC000DECFCF93DF93EC0188819981009711F0EA
:101DD0000E948F25198218821D821C821B821A8202
:101DE000DF91CF910895CF93DF93EC0144E050E071
:101DF00062E471E00E94B50E811103C0CE010E9421
:101E0000E10ECE01DF91CF910895EF92FF920F93F3
:101E10001F93CF93DF93EC017B018A01BA010E94EB
:101E20008D0E81110BC0CE010E94E10ECE01DF911B
:101E3000CF911F910F91FF90EF9008951D830C8318
:101E4000B701888199810E94E326F0CFFB010190C0
:101E50000020E9F73197AF01461B570B0C94050F93
:101E60000F931F93CF93DF93CDB7DEB761970FB674
:101E7000F894DEBF0FBECDBF8C01CB01F8011182FB
:101E8000108213821282158214824AE0BE016F5FB3
:101E90007F4F0E94B521BE016F5F7F4FC8010E9436
:101EA000260F61960FB6F894DEBF0FBECDBFDF914F
:101EB000CF911F910F910895CF93DF93EC01FB0118
:101EC0008617970749F0608171816115710541F0AE
:101ED000448155810E94050FCE01DF91CF91089575
:101EE0000E94E10EF9CFFC0111821082138212824E
:101EF000158214820C945C0F0F931F93CF93DF9382
:101F000000D0CDB7DEB7082F80911702833029F0BB
:101F100083E0809317020E94200A003251F481E08E
:101F2000809311020F900F90DF91CF911F910F912D
:101F3000089580911102882309F446C0809110020F
:101F40008B3038F110910F0281E0810F80930F02E6
:101F5000109210028430B0F165E774E08FE694E0EF
:101F60000E945C0F6BE774E085E794E00E945C0FD1
:101F700061E874E08BE794E00E945C0F69E072E036
:101F800081E894E00E94260F10930F0281E0809375
:101F90000E02109110021123A9F080910F0226E089
:101FA000829FC001112420E229831A8241E050E07F
:101FB000BE016F5F7F4F81599B4F0E94B50E1F5F1F
:101FC0001093100210921102809110028B3038F1A0
:101FD00010910F0281E0810F80930F021092100286
:101FE0008430E8F065E774E08FE694E00E945C0FCF
:101FF0006BE774E085E794E00E945C0F61E874E0B1
:102000008BE794E00E945C0F69E072E081E894E065
:102010000E94260F10930F0281E080930E028091A0
:102020000F0226E0829FC001112409831A8241E039
:1020300050E0BE016F5F7F4F81599B4F0E94B50EEC
:10204000809110028F5F8093100281E080930D02D7
:1020500069CFFC01118210821382128215821482D0
:10206000FB0101900020E9F73197AF01461B570BA8
:102070000C94050FFC0180819181009711F00C9464
:102080008F250895CF93DF93CDB7DEB762970FB654
:10209000F894DEBF0FBECDBF609142037091430341
:1020A000CE0101960E94300FBE016F5F7F4FCE01BF
:1020B00007960E94730FCE0107960E94F30EBC0193
:1020C000CE010D960E94730F48EE53E060E0CE0102
:1020D0000D960E942C0DCE010D960E943A10CE0155
:1020E00007960E943A10CE0101960E943A1062961D
:1020F0000FB6F894DEBF0FBECDBFDF91CF9108952C
:10210000CF92DF92EF92FF920F931F93CF93DF93C3
:10211000CDB7DEB762970FB6F894DEBF0FBECDBF66
:1021200087E00E94B6048C0186E00E94B604E0912C
:102130002C02EF70000F111F082B84E0E89FF001C4
:102140001124E65FFE4FE00FF11D108110932C0269
:10215000107309F49EC0C0901C02D0901D02E09044
:102160001E02F0901F02C0921802D0921902E09253
:102170001A02F0921B028091200290912102A091FC
:102180002202B091230280931C0290931D02A0931F
:102190001E02B0931F028091240290912502A0910B
:1021A0002602B09127028093200290932102A093EF
:1021B0002202B09323028091280290912902A091DB
:1021C0002A02B0912B028093240290932502A093BF
:1021D0002602B09327020E94B007609328027093F2
:1021E000290280932A0290932B02DC01CB018C19E7
:1021F0009D09AE09BF09103209F05AC08A3F910506
:10220000A105B10508F45EC081E090E020912203B1
:10221000223009F05DC020914C0330914D03820FB4
:10222000931F9C01265031092633310538F49093D1
:102230004D0380934C0381E08093B80260914C037E
:1022400070914D03CE010D960E94300FBE01635F69
:102250007F4FCE0107960E94730FCE0107960E9412
:10226000F30EBC01CE0101960E94730F48EE53E0BD
:1022700060E0CE0101960E942C0DCE0101960E94D5
:102280003A10CE0107960E943A10CE010D960E9498
:102290003A1062960FB6F894DEBF0FBECDBFDF9145
:1022A000CF911F910F91FF90EF90DF90CF90089505
:1022B000103179F78A3F9105A105B10530F08FEF14
:1022C0009FEFA4CF82E090E0A1CF8EEF9FEF9ECF53
:1022D0002091420330914303820F931F9C012650AB
:1022E00031092633310548F4909343038093420328
:1022F00081E08093B8020E9442100E944210C9CF30
:102300004F925F926F927F928F929F92AF92BF9205
:10231000CF92DF92EF92FF920F931F93CF93DF93B1
:102320006B017C0149015A01B80180EB94E00E94E5
:102330009824072E000C880B990B0E94E621A70118
:1023400096010E94452220E030E04AE754E40E94D2
:1023500045220E9449246B017C0120E030E04AE7DD
:1023600054E4C501B4010E9445220E944924C60ECE
:10237000D71EE81EF91EF7FC63C00E9459074B01E7
:102380005C0126013701480C591C6A1C7B1CD1E0FA
:102390000E945907681979098A099B096C157D05FE
:1023A0008E059F0508F05DC00E94310C0E948010D0
:1023B0000E945907A3019201261B370B480B590BAA
:1023C000DA01C90181319742A105B10510F00E94DF
:1023D000880D80912D03C09133029BEF980F9230AE
:1023E00070F0833061F482E00E94B604892B39F4E6
:1023F00085E00E94B604892B11F4D093AF02C1305E
:1024000009F058C00E94100C80912B03813009F014
:10241000BFCF82E00E94B604892B09F053C080919F
:1024200022038111B5CF83E080932B030E94B00774
:102430006093B0027093B1028093B2029093B302A2
:10244000DF91CF911F910F91FF90EF90DF90CF9090
:10245000BF90AF909F908F907F906F905F904F90C4
:10246000089580912D038330A1F48091AF028823D9
:1024700081F082E00E94B604019759F485E00E9441
:10248000B604019731F41092AF0210922403109217
:102490002303809133028150823090F6809135037E
:1024A00081111092240380913603882349F21092FF
:1024B0002303C6CFC23019F40E949712A5CF0E9401
:1024C000100CFACF85E00E94B604892B09F4A7CF3F
:1024D000809124038111A3CF8091230381119FCF89
:1024E00057CF8F929F92AF92BF92CF92DF92EF928F
:1024F000FF920F931F936B017C0149015A0120E069
:1025000030E0A9010E94DF21181634F4A5019401DE
:10251000C701B6010E9480111F910F91FF90EF90AB
:10252000DF90CF90BF90AF909F908F9008950F93C2
:102530001F9380912C03811120C082E00E94B60479
:10254000909132028823D9F09923A1F0109232029F
:1025500082E080932B03009142031091430320E01B
:1025600030E0A90160E070E080E490E40E94801116
:10257000109224031F910F91089585E0DFCF9111F0
:10258000F9CF81E0809324031092250310923C043C
:10259000F1CF80912203813009F486C00E94971206
:1025A0000E94100C80912D038530A9F580912D0299
:1025B000823001F130F4882309F46EC0813039F0A3
:1025C00008958330D1F1843009F450C0089580918A
:1025D000240390912303992341F08823D1F184E0CF
:1025E00080932D0210922403089581115DC01092F2
:1025F0002D0208958091230390912403992341F0A3
:10260000882319F183E080932D021092230308950B
:10261000882369F30895863009F046C080912D0221
:10262000823021F128F48823B9F1813031F0089506
:10263000833099F0843031F1089580912303909193
:102640002403992321F08111E0CF81E003C0882386
:1026500071F282E080932D0208958091240390917D
:1026600023039111BACF882311F208958091240396
:1026700090912303992319F0882359F3B3CF811143
:10268000E4CFB5CF80912303909124039111B8CF6B
:10269000882309F4ACCF08958091230390912403FB
:1026A0009111AECF8111D5CF08958F929F92AF92A5
:1026B000BF92CF92DF92EF92FF920F931F93CF932F
:1026C000DF93C0914203D091430380912203823073
:1026D00021F4C0914C03D0914D0382E080933302EA
:1026E00081E090E00E94DD0C6091410370E090E099
:1026F00080E00E94E4216B017C01609146037091AF
:10270000470390E080E00E94E42120E030E048ECC4
:1027100052E40E94D7234B015C016091340370E0C6
:1027200090E080E00E94E42120E030E048E452E4C0
:102730000E94D7239B01AC01C501B4010E94452230
:102740008E01A70196010E94711290E080E00E9424
:10275000DD0C6091410370E090E080E00E94E62192
:102760006B017C01F7FAF094F7F8F0946091340370
:1027700070E090E080E00E94E42120E030E048E456
:1027800052E40E94D72320E030E040E450E40E946D
:1027900045229B01AC0160E070E080E890E40E947B
:1027A0006A23A70196010E94711280912B03823047
:1027B00009F058C02091BD023091BE024091BF0285
:1027C0005091C002AAE0B0E00E9419236E5F7F4FD3
:1027D0008F4F9F4F6093BD027093BE028093BF02E4
:1027E0009093C0020E94B0076B017C01609142038C
:1027F0007091430390E080E00E94E4219B01AC01D2
:1028000060E070E086E994E40E94D7234B015C010C
:10281000609156037091570390E080E00E94E4219C
:1028200020E030E048EC52E40E94D7239B01AC0149
:10283000C501B4010E9445224B015C01C701B601EC
:102840000E94E4219B01AC01C501B4010E946B23ED
:102850000E9450246093B9027093BA028093BB0225
:102860009093BC020E94C9121092330280912B03F4
:1028700080930001DF91CF911F910F91FF90EF9016
:10288000DF90CF90BF90AF909F908F9008958F92E0
:102890009F92AF92BF92CF92DF92EF92FF920F93EF
:1028A0001F93CF93DF93C0914203D0914303809154
:1028B0002203823021F4C0914C03D0914D0381E07A
:1028C0008093330281E090E00E94DD0C609141032F
:1028D00070E090E080E00E94E4216B017C01609157
:1028E000340370E090E080E00E94E42120E030E0DA
:1028F00048E452E40E94D7238E01A70196010E946A
:10290000711290E080E00E94DD0C6091410370E064
:1029100090E080E00E94E6216B017C01F7FAF094E0
:10292000F7F8F0946091340370E090E080E00E944A
:10293000E42120E030E048E452E40E94D7239B01E8
:10294000AC0160E070E080E090E40E946A23A7019F
:1029500096010E947112C0912B03C23009F058C039
:102960002091BD023091BE024091BF025091C00241
:10297000AAE0B0E00E9419236F5F7F4F8F4F9F4FF7
:102980006093BD027093BE028093BF029093C00219
:102990000E94B0076B017C01609142037091430378
:1029A00090E080E00E94E4219B01AC0160E070E0D7
:1029B00086E994E40E94D7234B015C0160915603A1
:1029C0007091570390E080E00E94E42120E030E025
:1029D00048EC52E40E94D7239B01AC01C501B4012D
:1029E0000E9445224B015C01C701B6010E94E4210F
:1029F0009B01AC01C501B4010E946B230E945024CD
:102A00006093B9027093BA028093BB029093BC02A8
:102A100010923302C0930001DF91CF911F910F916B
:102A2000FF90EF90DF90CF90BF90AF909F908F90EE
:102A30000C94C9120F931F93CF93DF938C0181E005
:102A400080932B03D0E0C0E0F801EC0FFD1F8081E4
:102A50008D3219F18E3221F50E94471480912403A2
:102A6000811108C080912303811104C080912B0340
:102A7000833051F480912203813031F0109224038D
:102A800010922303CCE0D0E02196CC30D105E4F2C3
:102A9000DF91CF911F910F9108950E945513DECFC2
:102AA000CCE0D0E0DBCF0F931F93CF938A3009F4B3
:102AB00046C18D3009F443C191E090932B0390916E
:102AC000A20291113CC1C62F80528D3508F01AC167
:102AD000E82FF0E0E259FA4E0C94CB246F1645161D
:102AE0005D16821660168216511648164B164E1643
:102AF0003F1654164516571642163C161B161E1640
:102B00002116241627162A162D16301633163616B9
:102B100069166C16541639166616A3166316CB156D
:102B2000D015D315D615D915DC15DF15E215E51529
:102B3000E815EB15EE15F115F415F715FA15FD1559
:102B400000160316061609160C160F161216151681
:102B5000181682168216821682165A168216821647
:102B600082168216821682168216821682168216A5
:102B70008216821682168216821682168216821695
:102B80008216821682168216821682168216821685
:102B900082168216921688EA91E00E941A15B2C037
:102BA00087ED91E0FACF80ED91E0F7CF87E791E0F4
:102BB000F4CF8CE991E0F1CF81EC91E0EECF8AE99E
:102BC00091E0EBCF80E791E0E8CF88E791E0E5CFB7
:102BD0008EE591E0E2CF87EA91E0DFCF87E491E0F4
:102BE000DCCF84E591E0D9CF8BE991E0D6CF83E5C6
:102BF00091E0D3CF8FE991E0D0CF86EA91E0CDCFBD
:102C000081ED91E0CACF88ED91E0C7CF85E591E0F5
:102C1000C4CF8AEC91E0C1CF8CE791E0BECF8DE4C8
:102C200091E0BBCF89EC91E0B8CF8CE491E0B5CFD7
:102C300086E791E0B2CF81E591E0AFCF87E591E003
:102C4000ACCF8DE591E0A9CF83E691E0A6CF82EBF2
:102C500091E0A3CF89E691E0A0CF8FE691E09DCFF0
:102C600086ED91E09ACF85E791E097CF88E991E0F2
:102C700094CF8BE791E091CF80EC91E08ECF81E80B
:102C800091E08BCF89E891E088CF80E991E085CF12
:102C900087E991E082CF8EE991E07FCF84EA91E0ED
:102CA0007CCF8BEA91E079CF8DED91E076CF81EB0F
:102CB00091E073CF88EB91E070CF8FEB91E06DCF17
:102CC00086EC91E06ACF8EEC91E067CF82E891E0EC
:102CD00064CF85ED91E061CF8CED91E05ECF009106
:102CE000420310914303609130036550770B072E28
:102CF000000C880B990B0E94E62120E030E0A9012E
:102D00000E947112C130D9F0009142031091430327
:102D100020E030E0A90160E070E080E090E40E94F3
:102D200071120DC0009142031091430320E030E086
:102D3000A90160E070E080E09FE30E948011CF91E4
:102D40001F910F91089583EE91E027CF0F931F936A
:102D5000CF93C0913D04C11123C180913C048823CD
:102D600009F4EFC08091A60392EF980F9B3008F012
:102D700006C1853129F482E080933D040E94E10B75
:102D80008091A603863111F40E94E10B8091A60385
:102D9000873139F40E94E10B80913C0481110E943B
:102DA000E10B8091A6038E30E9F480913C048330DE
:102DB000C8F00E94E10B8091A60310924203809319
:102DC00043030E94E10B8091A603209142033091BE
:102DD0004303820F932F911D9093430380934203EB
:102DE0000E94E10B8091A603883191F40E94E10BCF
:102DF00080913C04823060F08091A6039FEF980F91
:102E0000963020F4813011F40E94D50B0E94E10B22
:102E10008091A603833111F40E94E10B8091A603F7
:102E20008431C1F40E94E10B80913C04882339F085
:102E300061E08091A6030E9453150E94E10B8091EE
:102E40003C04882339F060E08091A6030E9453156A
:102E50000E94E10BC091A603C13181F50E94E10BF4
:102E600080913C04882351F181E080933D0480935C
:102E70002B0381E090E00E94DD0C0E94B007AB01C3
:102E8000BC01E091A60328EE33E0E29FC001E39F7E
:102E9000900D1124092E000CAA0BBB0B840F951F5B
:102EA000A61FB71F8093270390932803A09329039D
:102EB000B0932A03C09326030E94E10BC091A6039E
:102EC000C23151F50E94E10B80913C04882321F12D
:102ED00081E080933D040E94B007AB01BC01E0910A
:102EE000A60328EE33E0E29FC001E39F900D11247A
:102EF000092E000CAA0BBB0B840F951FA61FB71F32
:102F00008093270390932803A0932903B0932A0367
:102F1000C09326030E94E10B8091A6038F3039F401
:102F20000E94E10B81E0809325030E949C0C80911C
:102F3000A603803131F40E94E10B109225030E9418
:102F4000230C0E94C91280912403811104C0809136
:102F50002303882381F080913C04882361F08091D1
:102F60002203813041F010923C0410923D041092F3
:102F7000240310922303CF911F910F9108950E9473
:102F80007C0F0E94880D60E08091A6030E9453157B
:102F90008091A6038E508B30A0F20E94E10BD1CF1E
:102FA000C130A1F5809126038131C9F40E94B00798
:102FB00000912703109128032091290330912A03BF
:102FC000061717072807390708F5C0932B0390E069
:102FD00080E00E94DD0C1092260310923D04809147
:102FE0002603823199F40E94B007009127031091C3
:102FF00028032091290330912A0306171707280771
:10300000390720F41092260310923D0440913D04AC
:10301000423009F096CF80913C04811103C0109298
:103020003D048FCF30E020E090E0BC012817390745
:103030006CF4F901EA55FC4F5081563129F0B90181
:103040009B012F5F3F4FF1CF40E0FACF40933D040B
:1030500078CF85ED8093BC008091FA029091FB02BD
:10306000A091FC02B091FD020796A11DB11D23E0C5
:10307000B695A795979587952A95D1F72091BC008D
:1030800024FD03C01092F80208954091FA02509175
:10309000FB026091FC027091FD02452B462B472BF1
:1030A00069F30097A105B10541F02AE22A95F1F7ED
:1030B00000C00197A109B109E1CF8091F9020C94F8
:1030C00001081F920F920FB60F9211242F933F9376
:1030D0004F935F936F937F938F939F93AF93BF9320
:1030E000EF93FF938091430490914404A091450491
:1030F000B0914604892B8A2B8B2BD1F190913E0401
:10310000E0913F04F0914004808189278083809181
:10311000430490914404A0914504B09146041816CC
:1031200019061A061B069CF48091430490914404EE
:10313000A0914504B09146040197A109B10980937B
:10314000430490934404A0934504B0934604FF9134
:10315000EF91BF91AF919F918F917F916F915F910F
:103160004F913F912F910F900FBE0F901F90189588
:10317000809103010E940D05EACF1F920F920FB6B6
:103180000F9211242F933F938F939F93AF93BF93ED
:103190008091990290919A02A0919B02B0919C0219
:1031A0003091980223E0230F2D3758F50196A11D89
:1031B000B11D209398028093990290939A02A09354
:1031C0009B02B0939C0280919D0290919E02A091DF
:1031D0009F02B091A0020196A11DB11D80939D0296
:1031E00090939E02A0939F02B093A002BF91AF91D3
:1031F0009F918F913F912F910F900FBE0F901F9035
:10320000189526E8230F0296A11DB11DD2CF1F925B
:103210000F920FB60F9211242F933F934F935F930A
:103220006F937F938F939F93AF93BF93EF93FF938E
:103230008091B900887F803609F44AC0F0F5883261
:1032400009F4A7C018F5803109F49BC0B8F48823AD
:1032500009F4F9C0883009F494C0FF91EF91BF914F
:10326000AF919F918F917F916F915F914F913F911E
:103270002F910F900FBE0F901F901895883109F471
:1032800088C0803251F78093F60214C0803409F46C
:103290009DC040F48033B9F38833F9F68093F60289
:1032A00085ECB0C0803509F485C0883509F496C036
:1032B000883499F60E942918D0CF883909F48CC037
:1032C00038F5883729F050F4883611F0803729F620
:1032D00083E08093F8021092970257C0883809F46F
:1032E0007BC0803919F0803809F0B7CF8091970200
:1032F000803208F071C0E091970281E08E0F8093D8
:1033000097028091BB00F0E0E958FD4F80833DC0FB
:10331000803B39F0E0F4803A09F479C0883A09F04A
:103320009CCF84E08093F80210927602109275028E
:10333000E091A502F091A602099580917502811194
:103340000FC081E0809375021092550209C0803C45
:1033500009F4A6CF883C09F4A3CF883B09F07DCFC0
:10336000E091760281E08E0F80937602F0E0EB5AD6
:10337000FD4F80818093BB00909176028091750211
:1033800029C08091D3028093BB0085EC8093BC0060
:1033900064CF9091F5028091F402981758F5E0916E
:1033A000F50281E08E0F8093F502F0E0EC52FD4FC4
:1033B0008081E9CFE091F50281E08E0F8093F502E4
:1033C0008091BB00F0E0EC52FD4F80839091F502BC
:1033D0008091F4029817C8F285E8D8CFE091F50201
:1033E00081E08E0F8093F5028091BB00F0E0EC52FB
:1033F000FD4F80838091F70281115CCF81E0809343
:10340000D20284EA8093BC001092F80226CF85ECA9
:103410008093BC001092F80280919702803230F4C1
:10342000E0919702F0E0E958FD4F10826091970219
:1034300070E0E091A302F091A40287E792E0099581
:10344000109297020ACF1092F60234CFCF93DF93F7
:10345000109252041092510488EE93E0A0E0B0E084
:103460008093530490935404A0935504B09356044E
:1034700086E291E09093500480934F04CFE6D4E02D
:10348000198218821B821A821D821C8250E040E041
:1034900069E072E0CE010E94050F269684E0C738ED
:1034A000D80771F710925E0410925D0410926704C1
:1034B0001092680410926A041092690410926B04CE
:1034C00081E080936C0488E391E090935C048093A6
:1034D0005B04DF91CF910895CF93DF93CDB7DEB733
:1034E00062970FB6F894DEBF0FBECDBF789484B557
:1034F000826084BD84B5816084BD85B5826085BDF0
:1035000085B5816085BD80916E00816080936E007D
:10351000109281008091810082608093810080916F
:103520008100816080938100809180008160809320
:1035300080008091B10084608093B1008091B000E0
:1035400081608093B00080917A00846080937A00DB
:1035500080917A00826080937A0080917A00816005
:1035600080937A0080917A00806880937A0010922C
:10357000C10060E082E00E94390561E082E00E94C3
:10358000DF0460E085E00E94390561E085E00E948B
:10359000DF0461E08BE00E94390560E08BE00E946F
:1035A000DF0461E08CE00E94390560E08CE00E945D
:1035B000DF0461E084E00E94390560E084E00E945D
:1035C000DF041092A10211E01093A9028AE190E0B9
:1035D000909343038093420310923A0328E532E02C
:1035E000309345032093440328EB3BE030934B0397
:1035F00020934A0321E2209337032CE231E03093F9
:1036000047032093460327E02093300322E32093CF
:10361000340326E020933B0310933C03909349032B
:103620008093480310923D0384E190E090934D0312
:1036300080934C0310923E038FEF90E09093A5038C
:103640008093A40310923F03109240038FEA90E00E
:10365000909357038093560388EC90E0909359031E
:1036600080935803109241031092790310927803CB
:103670008AE090E0909385038093840310927B030B
:1036800010927A03909387038093860310927D03B0
:1036900010927C03909389038093880310927F0398
:1036A00010927E0390938B0380938A031092810380
:1036B0001092800390938D0380938C031092830368
:1036C0001092820390938F0380938E031092910344
:1036D0001092900310929B0310929A0310929303FE
:1036E0001092920310929D0310929C0310929503E6
:1036F0001092940310929F0310929E0310929703CE
:10370000109296031092A1031092A00310929903B5
:10371000109298031092A3031092A2030E94D50B5B
:1037200060E086E00E94390560E087E00E9439058C
:1037300061E086E00E94DF0461E087E00E94DF0430
:103740001092220310922C0382E080932D03109399
:103750002E031092A2026AEF70E080E090E00E94D7
:103760007E0782E00E94B604892B89F485E00E94DE
:10377000B604892B61F482E00E94B604892B29F4F7
:1037800085E00E94B604892BB1F30E94680E90E098
:1037900080E00E940323893209F457C00E94680E1A
:1037A00082E00E94B604892B41F085E00E94B604B5
:1037B000892B19F481E080932D031092A8021092B6
:1037C000A7021092FF02109221030E94E3078EE5E8
:1037D00094E09093A6028093A5028FE594E09093E5
:1037E000A4028093A3028CE08093B80010926E0430
:1037F0008CE380936D0410925F0410926004EBE2FE
:10380000F8E085919491082FEDE2F8E01491EEE252
:10381000F8E0E491E0936104EFE2F8E0E491E093F2
:103820006204E0E3F8E0E491E09363047C018E2D10
:10383000801B811720F5F70164918BE594E00E94CD
:10384000AC09FFEFEF1AFF0AF2CF9CE2E92E93E0FA
:10385000F92E01E010E0C8010E940323F7018193D3
:103860007F010F5F1F4F0B371105A9F780913303BD
:10387000813011F40E94D50B1092B80291CF0E94B2
:10388000200AE9EBF0E0F0936A04E0936904849184
:10389000EAEBF0E0E491F82F319709F0DAC01092EA
:1038A00064046AEE71E0CE0101960E94291040EA9C
:1038B0005FE060E0CE0101960E942C0DCE010196E2
:1038C0000E943A1065EF71E0CE0101960E94291026
:1038D00040EA5FE061E0CE0101960E942C0DCE012E
:1038E00001960E943A1068EF71E0CE0107960E949F
:1038F000291066E072E0CE010D960E9429104B85DA
:103900005C856F817885CE010D960E94B50E811180
:1039100004C0CE010D960E94E10EBE01635F7F4F91
:10392000CE0101960E94730F40EA5FE063E0CE0192
:1039300001960E942C0DCE0101960E943A10CE01F4
:103940000D960E943A10CE0107960E943A1080917F
:1039500022038130A9F01091A90200912E03109248
:10396000A90281E080932E0360E088E40E94531551
:1039700060E089E40E94531500932E031093A9027E
:1039800088E5282E82E0382E11E0809122038111F3
:1039900019C30E94C91280912203813009F473C0B7
:1039A0004090B0025090B1026090B2027090B302A9
:1039B000411451046104710451F10E94B0076B017C
:1039C0007C01C418D508E608F7086091420370919D
:1039D000430380EB94E00E94842420913A03269FC5
:1039E000C001279F900D1124B0E0A0E08C159D052B
:1039F000AE05BF0508F043C01092B0021092B102AC
:103A00001092B2021092B30282E080932B03809155
:103A10002D039EEF980F923000F19BEF980F92309C
:103A200008F0D9C080912403882339F01092240330
:103A300082E080932B030E94471480912303882304
:103A400011F11092230382E080932B030E945513FF
:103A50001AC081E08093640424CF833019F78091E9
:103A6000AF028823F9F282E00E94B604892BD1F2DA
:103A700085E00E94B604892BA9F21092AF02109241
:103A80002403109223030E94A6160E94310C0E9468
:103A900080108091B802882309F43FC00E94B007CB
:103AA000C090B402D090B502E090B602F090B70298
:103AB0006C197D098E099F09613375478105910550
:103AC00060F180913C04811128C08091C80281116D
:103AD00024C080912403811120C08091230381118F
:103AE0001CC08091C902811118C082E00E94B604F6
:103AF000019799F485E00E94B604019771F4109340
:103B0000C9021092B8020E94B0076093B402709389
:103B1000B5028093B6029093B7020E94C9120E9428
:103B2000A6160E94880DC090BD02D090BE02E09003
:103B3000BF02F090C002C114D104E104F10409F401
:103B4000AAC10E94B0078090B9029090BA02A090DA
:103B5000BB02B090BC0286169706A806B90608F00C
:103B6000E1C183E4F9E4CF16F8E0DF06E104F104F3
:103B700009F44DC10CF0ECC284E433EDC316D1045A
:103B8000E104F10409F443C10CF07BC28EE495E139
:103B9000C916D104E104F10409F439C10CF046C29C
:103BA00080E2F9E0CF16D104E104F10409F42FC159
:103BB0000CF01EC185E431E0C316D104E104F10428
:103BC00009F425C182E0C816D104E104F10409F426
:103BD000A4C38AE21CC1843009F0F3C0809124039D
:103BE000882339F01092240382E080932B030E94F3
:103BF00047148091AE02909123039923C1F0109253
:103C00002303811140CF82E080932B0381E090E079
:103C10000E94DD0C1093AE020E94B0076093AA02CE
:103C20007093AB028093AC029093AD022CCF8823AB
:103C300009F429CF82E080932B0390E080E00E947A
:103C4000DD0C0E94B0078090AA029090AB02A09079
:103C5000AC02B090AD02681979098A099B090E94EB
:103C6000E4216B017C01609142037091430390E079
:103C700080E00E94E4219B01AC0160E070E086E9F5
:103C800094E40E94D72320E030E040E05FE30E940C
:103C900045229B01AC01C701B6010E947F24181682
:103CA0000CF086C00E94B0072B013C012091BD02A0
:103CB0003091BE024091BF025091C002AAE0B0E034
:103CC0000E9419236B017C01C301B20168197909B3
:103CD0008A099B090E94E4212B013C016091420367
:103CE0007091430390E080E00E94E4219B01AC01CD
:103CF00060E070E086E994E40E94D7239B01AC0168
:103D00000E946B239B01AC01C301B2010E947F247E
:103D100018160CF050C022E0C20ED11CE11CF11CA0
:103D2000C092BD02D092BE02E092BF02F092C002E9
:103D30000E94B0072B013C01609142037091430344
:103D400090E080E00E94E4219B01AC0160E070E81B
:103D50008BE395E40E94D7236B017C0160915603AD
:103D60007091570390E080E00E94E42120E030E071
:103D700048EC52E40E94D7239B01AC01C701B60175
:103D80000E9445226B017C01C301B2010E94E42123
:103D90009B01AC01C701B6010E946B230E94502415
:103DA0006093B9027093BA028093BB029093BC02F5
:103DB0001092AE0268CE3FEFC31AD30AE30AF30AA9
:103DC000AFCF813009F05FCE80912403882351F07A
:103DD0001092240382E080932B0381E090E00E9404
:103DE000DD0C51CE82E080932B0390E080E0F7CF92
:103DF00089E49BE0C916D104E104F10441F081E4B7
:103E0000ECE0CE16D104E104F10409F0E2CE0E9408
:103E10007C0F1092BD021092BE021092BF0210924F
:103E2000C0020E94B0072B013C01609142037091D7
:103E30004303C1010E94842490E080E00E94E421B9
:103E400020E030E040E450E40E9445226B017C0118
:103E5000C301B2010E94E4219B01AC01C701B6017C
:103E60000E946B230E9450246093B9027093BA029F
:103E70008093BB029093BC02109202018091BD021C
:103E80009091BE02A091BF02B091C002892B8A2BF3
:103E90008B2B09F047C00E94B0070E94E4216B0100
:103EA0007C01609142037091430380EB94E00E9497
:103EB000842490E080E00E94E4212B013C01609189
:103EC00030036350770B072E000C880B990B0E9470
:103ED000E6219B01AC01C301B2010E9445222B01E6
:103EE0003C016091B9027091BA028091BB0290913D
:103EF000BC020E94E4219B01AC01C301B2010E94FB
:103F00006B239B01AC01C701B6010E947F241816E8
:103F10004CF480910201811105C080E20E947C0F67
:103F2000109302018091C902882309F44BC080914B
:103F30003C04811147C08091C802811143C0809127
:103F4000240381113FC08091230381113BC082E093
:103F50000E94B6040197B1F585E00E94B604813055
:103F6000910581F52091C702222309F4DDC1E0917A
:103F7000C502F091C602CF0101969093C6028093CC
:103F8000C5020081E090C302F090C402C70101960F
:103F90009093C4028093C302C7010E9403230817B1
:103FA00021F0602FC7010E940B238091C1029091E4
:103FB000C2028A37910508F0B2C101969093C202FD
:103FC0008093C1020E94B007C090CE02D090CF0271
:103FD000E090D002F090D1026C157D058E059F0512
:103FE00098F48091CA029091CB02A091CC02B0913A
:103FF000CD020196A11DB11D8093CA029093CB0200
:10400000A093CC02B093CD020E94B0076093CE0281
:104010007093CF028093D0029093D10220E030E0E1
:10402000232B09F4B2CC0E940000AFCC85E5F0E769
:10403000CF16D104E104F10409F4E9CE8CF48DE447
:1040400036E1C316D104E104F10409F4E0CE8FE6B1
:10405000C816D104E104F10409F0BBCD83E5D7CE45
:1040600082E599E7C916D104E104F10409F4CFCE41
:1040700087E5EAE7CE16D104E104F10409F4C7CEDE
:10408000A8CD86E4F1E6CF16F4E0DF06E104F10402
:1040900009F4BDCE6CF58FE43EEDC316D104E10406
:1040A000F10409F4B4CE8CF48BE494EDC916D10478
:1040B000E104F10409F4ABCE87E4EDEDCE16D104B2
:1040C000E104F10409F4A3CE84CD88E4F7E5CF162A
:1040D000F4E0DF06E104F10409F499CE86E528E571
:1040E000C21624E0D206E104F10409F490CE71CDA9
:1040F0008AE436ECC31634E0D306E104F10409F493
:1041000086CE9CF48CE49BEBC91694E0D906E104BE
:10411000F10409F47CCE80E5E5ECCE16E4E0DE06A1
:10412000E104F10409F473CE54CD82E4FFE3CF1629
:10413000F8E0DF06E104F10409F469CE88E520E443
:10414000C21628E0D206E104F10409F460CE41CDA4
:104150008FE231E8C31632E5D306E104F10409F435
:1041600056CE0CF06AC083E392E7C9169BE2D906EB
:10417000E104F10409F44BCE84F581E5F4EACF16AD
:10418000F8E0DF06E104F10409F441CE9CF489E58E
:104190003AE4C31638E0D306E104F10409F437CE5B
:1041A00083EAC81688E0D806E104F10409F011CDCD
:1041B0008AE52DCE85E397E6C9169BE2D906E10490
:1041C000F10409F424CE84E3E8E6CE16EBE2DE0641
:1041D000E104F10409F41BCEFCCC81E3FEEBCF1625
:1041E000FFE2DF06E104F10409F411CE9CF482E35E
:1041F00036EDC3163BE2D306E104F10409F407CE21
:1042000089E5C8168FE2D806E104F10409F0E1CC93
:104210008BE2FDCD86E397E7C91692E5D906E10466
:10422000F10409F4F4CD8DE3E8E7CE16E2E5DE060D
:10423000E104F10409F4EBCDCCCC8FE3F3E5CF1628
:10424000F6EBDF06F1E0EF06F10409F4E0CD84F5CA
:1042500088E333ECC31636E5D306E104F10409F430
:10426000D6CD9CF488E295EEC91692E5D906E10414
:10427000F10409F4CCCD87E3EFE5CE16E6E5DE06E2
:10428000E104F10409F4C3CDA4CC89E3FDECCF161D
:10429000F6E5DF06E104F10409F4B9CD80E32EEC84
:1042A000C21626E5D206E104F10409F4B0CD91CCA2
:1042B0008DE238EAC31638E3D30633E0E306F104AF
:1042C00009F4A5CDACF48EE29CE7C91699EDD906A8
:1042D00091E0E906F10409F49ACD80E4E9E0CE1614
:1042E000EDEDDE06E1E0EE06F10409F490CD71CCCF
:1042F0008CE2F2ECCF16FFE5DF06F3E0EF06F10407
:1043000009F485CD8CE52EE0C21624E6D20623E022
:10431000E206F10409F47BCD5CCC84E578CD109203
:10432000C9021092C7024ECEECE2F3E0F093C6024F
:10433000E093C5029093C4028093C3021092C2021C
:104340001092C1021093C7023DCE81E894E00E9412
:104350003A108BE794E00E943A1085E794E00E94BF
:104360003A108FE694E00C943A10BB27FB015527D6
:10437000AA27880F991FAA1FA41710F0A41B8395C2
:104380005051B9F7A05DAA3308F0A95DA193009739
:1043900079F7B111B1931192CB010C94CF21DC01CB
:1043A000FC01672F71917723E1F7329704C07C916C
:1043B0006D9370836291AE17BF07C8F308950E9492
:1043C000212208F481E00895E89409C097FB3EF4A7
:1043D00090958095709561957F4F8F4F9F4F992352
:1043E000A9F0F92F96E9BB279395F69587957795D0
:1043F0006795B795F111F8CFFAF4BB0F11F460FF90
:104400001BC06F5F7F4F8F4F9F4F16C0882311F0E7
:1044100096E911C0772321F09EE8872F762F05C0FB
:10442000662371F096E8862F70E060E02AF09A9596
:10443000660F771F881FDAF7880F9695879597F98B
:104440000895990F0008550FAA0BE0E8FEEF161625
:104450001706E807F907C0F012161306E407F50778
:1044600098F0621B730B840B950B39F40A2661F0EC
:10447000232B242B252B21F408950A2609F4A1408F
:10448000A6958FEF811D811D08950E9458220C94DE
:10449000C9220E94BB2238F00E94C22220F095233C
:1044A00011F00C94B2220C94B82211240C94FD2229
:1044B0000E94DA2270F3959FC1F3950F50E0551FCB
:1044C000629FF001729FBB27F00DB11D639FAA2769
:1044D000F00DB11DAA1F649F6627B00DA11D661FB8
:1044E000829F2227B00DA11D621F739FB00DA11DD9
:1044F000621F839FA00D611D221F749F3327A00D93
:10450000611D231F849F600D211D822F762F6A2F2E
:1045100011249F5750409AF0F1F088234AF0EE0F93
:10452000FF1FBB1F661F771F881F91505040A9F7C0
:104530009E3F510580F00C94B2220C94FD225F3F07
:10454000E4F3983ED4F3869577956795B795F795FC
:10455000E7959F5FC1F7FE2B880F911D9695879574
:1045600097F9089597F99F6780E870E060E00895F3
:104570009FEF80EC089500240A941616170618067B
:104580000906089500240A94121613061406050657
:104590000895092E0394000C11F4882352F0BB0FE8
:1045A00040F4BF2B11F460FF04C06F5F7F4F8F4F4B
:1045B0009F4F089557FD9058440F551F59F05F3F86
:1045C00071F04795880F97FB991F61F09F3F79F035
:1045D00087950895121613061406551FF2CF4695B7
:1045E000F1DF08C0161617061806991FF1CF869539
:1045F0007105610508940895E894BB27662777271D
:10460000CB0197F90895F999FECF92BD81BDF89A33
:10461000992780B50895262FF999FECF1FBA92BD2C
:1046200081BD20BD0FB6F894FA9AF99A0FBE019693
:1046300008950E945B23A59F900DB49F900DA49FA9
:10464000800D911D112408952F923F924F925F92F9
:104650006F927F928F929F92AF92BF92CF92DF9292
:10466000EF92FF920F931F93CF93DF93CDB7DEB7F7
:10467000CA1BDB0B0FB6F894DEBF0FBECDBF09948B
:104680002A88398848885F846E847D848C849B84E2
:10469000AA84B984C884DF80EE80FD800C811B81F0
:1046A000AA81B981CE0FD11D0FB6F894DEBF0FBE1F
:1046B000CDBFED010895A29FB001B39FC001A39F9C
:1046C000700D811D1124911DB29F700D811D11244B
:1046D000911D08955058BB27AA270E9482230C944D
:1046E000C9220E94BB2238F00E94C22220F039F475
:1046F0009F3F19F426F40C94B8220EF4E095E7FBE2
:104700000C94B222E92F0E94DA2258F3BA176207FA
:1047100073078407950720F079F4A6F50C94FC2222
:104720000EF4E0950B2EBA2FA02D0B01B9019001CC
:104730000C01CA01A0011124FF27591B99F0593F10
:1047400050F4503E68F11A16F040A22F232F342F58
:104750004427585FF3CF469537952795A795F040A6
:104760005395C9F77EF41F16BA0B620B730B840BBB
:10477000BAF09150A1F0FF0FBB1F661F771F881F73
:10478000C2F70EC0BA0F621F731F841F48F48795CB
:1047900077956795B795F7959E3F08F0B0CF9395BD
:1047A000880F08F09927EE0F9795879508950E9436
:1047B000EB230C94C9220E94C22258F00E94BB2213
:1047C00040F029F45F3F29F00C94B22251110C946F
:1047D000FD220C94B8220E94DA2268F39923B1F3E7
:1047E000552391F3951B550BBB27AA276217730717
:1047F000840738F09F5F5F4F220F331F441FAA1FAB
:10480000A9F335D00E2E3AF0E0E832D09150504066
:10481000E695001CCAF72BD0FE2F29D0660F771F14
:10482000881FBB1F261737074807AB07B0E809F0FA
:10483000BB0B802DBF01FF2793585F4F3AF09E3F7F
:10484000510578F00C94B2220C94FD225F3FE4F302
:10485000983ED4F3869577956795B795F7959F5FC2
:10486000C9F7880F911D9695879597F90895E1E00E
:10487000660F771F881FBB1F621773078407BA076D
:1048800020F0621B730B840BBA0BEE1F88F7E095C8
:1048900008950E9450246894B1110C94FD2208954B
:1048A0000E94E22288F09F5798F0B92F9927B751BC
:1048B000B0F0E1F0660F771F881F991F1AF0BA95C4
:1048C000C9F714C0B13091F00E94FC22B1E0089504
:1048D0000C94FC22672F782F8827B85F39F0B93FF6
:1048E000CCF3869577956795B395D9F73EF4909577
:1048F0008095709561957F4F8F4F9F4F08950E94CF
:10490000212208F48FEF0895AA1BBB1B51E107C0B9
:10491000AA1FBB1FA617B70710F0A61BB70B881F4F
:10492000991F5A95A9F780959095BC01CD010895DE
:1049300097FB072E16F4009407D077FD09D00E944C
:10494000842407FC05D03EF4909581959F4F0895EF
:10495000709561957F4F0895052E97FB1EF4009486
:104960000E94C32457FD07D00E94D12407FC03D026
:104970004EF40C94C32450954095309521953F4FAB
:104980004F4F5F4F089590958095709561957F4F3B
:104990008F4F9F4F0895EE0FFF1F0590F491E02D6C
:1049A0000994A1E21A2EAA1BBB1BFD010DC0AA1F70
:1049B000BB1FEE1FFF1FA217B307E407F50720F088
:1049C000A21BB30BE40BF50B661F771F881F991F03
:1049D0001A9469F760957095809590959B01AC014C
:1049E000BD01CF0108950F931F93CF93DF938230C2
:1049F000910510F482E090E0E0918904F0918A043E
:104A000030E020E0B0E0A0E0309799F421153105C6
:104A100009F44AC0281B390B24303105D8F58A81A6
:104A20009B816115710589F1FB0193838283FE01EE
:104A300011C0408151810281138148175907E0F06C
:104A40004817590799F4109761F012960C93129732
:104A500013961C933296CF01DF91CF911F910F9146
:104A600008950093890410938A04F4CF2115310529
:104A700051F04217530738F0A901DB019A01BD013B
:104A8000DF01F801C1CFEF01F9CF90938A04809341
:104A90008904CDCFFE01E20FF31F81939193225041
:104AA000310939832883D7CF209187043091880436
:104AB000232B41F4209106013091070130938804A3
:104AC00020938704209104013091050121153105BF
:104AD00041F42DB73EB74091080150910901241BC4
:104AE000350BE0918704F0918804E217F307A0F4F6
:104AF0002E1B3F0B2817390778F0AC014E5F5F4F34
:104B00002417350748F04E0F5F1F509388044093D9
:104B10008704819391939FCFF0E0E0E09CCFCF9307
:104B2000DF930097E9F0FC01329713821282A09183
:104B30008904B0918A04ED0130E020E01097A1F4DF
:104B400020813181820F931F209187043091880446
:104B50002817390709F061C0F0938804E0938704AF
:104B6000DF91CF910895EA01CE17DF07E8F54A817A
:104B70005B819E0141155105B1F7E901FB83EA8391
:104B800049915991C40FD51FEC17FD0761F480813D
:104B900091810296840F951FE90199838883828110
:104BA00093819B838A83F0E0E0E012968D919C9143
:104BB00013970097B9F52D913C911197CD0102966D
:104BC000820F931F2091870430918804281739079A
:104BD00039F6309751F510928A0410928904B093F7
:104BE0008804A0938704BCCFD383C28340815181C2
:104BF000840F951FC817D90761F44E5F5F4F8881F6
:104C00009981480F591F518340838A819B819383E7
:104C100082832115310509F0B0CFF0938A04E09327
:104C200089049ECFFD01DC01C0CF13821282D7CF51
:104C3000B0E0A0E0EEE1F6E20C9426238C010097B0
:104C400051F4CB010E94F3248C01C801CDB7DEB72B
:104C5000E0E10C944223FC01E60FF71F9C01225077
:104C60003109E217F30708F49DC0D901CD91DC9119
:104C70001197C617D70798F0C530D10530F3CE018C
:104C800004978617970708F3C61BD70B2297C19383
:104C9000D1936D937C93CF010E948F25D6CF5B017A
:104CA000AC1ABD0A4C018C0E9D1EA0918904B091D6
:104CB0008A04512C412CF12CE12C109731F5809174
:104CC0008704909188048815990509F05CC0461600
:104CD000570608F058C08091040190910501009793
:104CE00041F48DB79EB74091080150910901841B92
:104CF000950BE817F90708F055C0F0938804E09386
:104D00008704F90171836083A0CF8D919C911197E5
:104D100012966C90129713967C901397A815B9056C
:104D200059F56C0142E0C40ED11CCA14DB0420F119
:104D3000AC014A195B09DA011296159780F062827C
:104D4000738251834083D9016D937C93E114F10404
:104D500071F0D7011396FC93EE93129776CF2296BB
:104D60008C0F9D1FF90191838083F301EFCFF093A6
:104D70008A04E093890469CF4816590608F42C0187
:104D80007D01D3019ACFCB010E94F3247C010097CF
:104D900049F0AE01B8010E94DA26C8010E948F25B1
:104DA000870153CF10E000E050CF81E090E0F8940D
:104DB0000C94EA26FB01DC0102C001900D924150E7
:104DC0005040D8F70895FB01DC0101900D920020BE
:104DD000E1F7089514E0C3E3D4E004C0FE010E94AB
:104DE000CB242196C433D107C9F7F894FFCF020B27
:104DF00001FF00008B04800003020100230001007A
:104E0000130200000305040003030410030503203C
:104E10000000000060093309650E09092C09190911
:104E20000A09000000003B0A6004650E640E2B0EA8
:104E30002077706D002E2D2E2E002D2E2D2D002D65
:104E40002D2D2D2D002E2D2D2D2D002E2E2D2D2DE9
:104E5000002E2E2E2D2D002E2E2E2E2E002D2E2EFF
:104E60002E2E002D2D2D2E2E002D2E2E2E2D002DF2
:104E70002E2E2E2D2E2D002E2D2E2D2E2D002D2DB5
:104E80002E2E2D2D002E2D2D2D2D2E002D2E2D2DA7
:104E90002E002D2E2D2D2E2D002E2D2E2E2E002DC2
:104EA0002E2E2E2E2D002E2E2D2D2E2D002E2D2E83
:104EB0002E2D2E002E2E2E2D2E2E2D002E2D2D2E73
:104EC0002D2E002D2D2D2E2E2E002D2E2D2E2D2E65
:104ED000002E2E2D2D2E2E004B334E47204B657964
:104EE000657200686900323032312E31322E31372E
:084EF0002E303100563A20007B
:107E0000112484B714BE81FFF0D085E080938100F7
:107E100082E08093C00088E18093C10086E0809377
:107E2000C20080E18093C4008EE0C9D0259A86E02C
:107E300020E33CEF91E0309385002093840096BBD3
:107E4000B09BFECF1D9AA8958150A9F7CC24DD24C4
:107E500088248394B5E0AB2EA1E19A2EF3E0BF2EE7
:107E6000A2D0813461F49FD0082FAFD0023811F036
:107E7000013811F484E001C083E08DD089C08234E0
:107E800011F484E103C0853419F485E0A6D080C0E4
:107E9000853579F488D0E82EFF2485D0082F10E0AE
:107EA000102F00270E291F29000F111F8ED06801E7
:107EB0006FC0863521F484E090D080E0DECF843638
:107EC00009F040C070D06FD0082F6DD080E0C81688
:107ED00080E7D80618F4F601B7BEE895C0E0D1E017
:107EE00062D089930C17E1F7F0E0CF16F0E7DF06D8
:107EF00018F0F601B7BEE89568D007B600FCFDCFD4
:107F0000A601A0E0B1E02C9130E011968C91119780
:107F100090E0982F8827822B932B1296FA010C0160
:107F200087BEE89511244E5F5F4FF1E0A038BF0790
:107F300051F7F601A7BEE89507B600FCFDCF97BE46
:107F4000E89526C08437B1F42ED02DD0F82E2BD052
:107F50003CD0F601EF2C8F010F5F1F4F84911BD097
:107F6000EA94F801C1F70894C11CD11CFA94CF0C13
:107F7000D11C0EC0853739F428D08EE10CD085E9AC
:107F80000AD08FE07ACF813511F488E018D01DD067
:107F900080E101D065CF982F8091C00085FFFCCF94
:107FA0009093C60008958091C00087FFFCCF809118
:107FB000C00084FD01C0A8958091C6000895E0E648
:107FC000F0E098E1908380830895EDDF803219F02E
:107FD00088E0F5DFFFCF84E1DECF1F93182FE3DFCA
:107FE0001150E9F7F2DF1F91089580E0E8DFEE27F6
:047FF000FF270994CA
:027FFE00040479
:00000001FF
